:030000000200B348
:0300030002012EC9
:1000130002013550415353574F52442042415345F7
:100023004400534543555249545920535953544559
:100033004D0053656C65637420002044494749545F
:100043005300444F4F52204F50454E4544005752A2
:100053004F4E472050415353574F5244004143435F
:10006300455353202D204752414E54454400444F9D
:100073004F52204F50454E45440057524F4E472054
:1000830050415353574F5244004143434553532028
:1000930044454E49454400494E50555420434C4530
:0B00A300415245440031323334350037
:1000B300318B90001631A531B490002531A531E183
:1000C300D2B2D288D2A8D2B3D2AAD28AD2AF7C007B
:1000D300318B311978307A307D0031B4EA31B9315E
:1000E300E1BD000431D380F2BD0215318B90009A3B
:1000F30031A531E131817C00C28B7D00C22580D0E6
:10010300EC2430F8EAF60CBC05C6313C31817C00A6
:100113007D00C225809A31AF90003531A5C37405A7
:100123009C243031B990003D31A5227D01D225C2F6
:1001330089327D02D225C28B327B009000A8EB244A
:1001430030F8E6F540EB93B540200BBB05F080009B
:10015300318B90006031A590007131B431A531E14C
:1001630031E131E131E131E180A2318B90007D3128
:10017300A590008C31B431A531E131FC808E790535
:100183007830760008D9FB22743831C6740C31C636
:10019300740631C6740131C6740231C6227401314A
:1001A300C622E493600531B9A380F722748031C677
:1001B3002274C031C622F580D296C294D29731EA16
:0D01C300C29722F580C296C294D29731EA0D
:1001D000C297220ABA3A047A418005BA47027A30B5
:1001E0002231EA31EA31EA31EA227FFF7EFFDEFE88
:1001F000DFFA227F147D14DDFEDFFA227F03758093
:10020000F031EA7E648E60B2A631F3AE60DEF67540
:07021000800F31EADFE82254
:00000001FF
