:03000000020038C3
:1000030002011053656C65637420332044494749EA
:10001300545300444F4F52204F50454E45440057D0
:10002300524F4E472050415353574F5244003132A1
:02003300330098
:10003800D2B2D288D2A8D2AF7C0011A69000061105
:10004800C078307A307D00C22511D1EA11D611FE70
:10005800BD000411F080F2EC2430F8EAF60CBC0381
:10006800D91171119C7C0080D17B00900031EB2468
:1000780030F8E6F540EB93B540100BBB03F0800079
:1000880011BB90001611C011FE2211BB9000221165
:10009800C011FE2279057830760008D9FB22743821
:1000A80011E3740C11E3740611E3740111E3740293
:1000B80011E322740111E32211CCE493600511D6F7
:1000C800A380F722748011E32274C011E322F58023
:1000D800D296C294D2973107C29722F580C296C2AF
:1000E80094D2973107C297220ABA3A047A41800516
:1000F800BA47027A30223107310731073107227FA8
:0D010800FF7EFFDEFEDFFA227D01D22532F0
:00000001FF
