:030000000200AF4C
:030003000201D81F
:100013000201DF50415353574F524420424153454D
:100023004400534543555249545920535953544559
:100033004D0053656C65637420002044494749545F
:100043005300444F4F52204F50454E4544005752A2
:100053004F4E472050415353574F5244004143435F
:10006300455353202D204752414E54454400444F9D
:100073004F52204F50454E45440057524F4E472054
:1000830050415353574F5244004143434553532028
:1000930044454E49454400494E50555420434C4530
:0900A300415245440031323300A2
:1000AF00316B900016318531B3900025318531C603
:1000BF00D2B2D288D2A8D2B3D2AAD28AD2AF7C007F
:1000CF00316B311378307A307D00C2253194EA31AB
:1000DF009931C6BD000431B880F2BD0213316B9067
:1000EF00009A318531C631617C00C28B7D0080D092
:1000FF00EC2430F8EAF60CBC03C6312831617C00E1
:10010F007D0080BC318F9000353185C374039C24F2
:10011F0030319990003D3185227B009000A8EB246F
:10012F0030F8E6F540EB93B540170BBB03F08000BA
:10013F00316B900060318590007131B3318531C6DC
:10014F0022316B90007D318590008C31B331853138
:10015F00C62279057830760008D9FB22743831A68B
:10016F00740C31A6740631A6740131A6740231A63F
:10017F0022740131A622E49360053199A380F722FE
:10018F00748031A62274C031A622F580D296C29413
:10019F00D29731CFC29722F580C296C294D29731AF
:1001AF00CFC2972274C031A6220ABA3A047A41808C
:0B01BF0005BA47027A302231CF31CF61
:1001CA0031CF31CF227FFF7EFFDEFEDFFA227D01B3
:0C01DA00D225C289327D02D225C28B32B0
:00000001FF
