:030000000200B348
:030003000201E512
:100013000201EC50415353574F5244204241534540
:100023004400534543555249545920535953544559
:100033004D0053656C65637420002044494749545F
:100043005300444F4F52204F50454E4544005752A2
:100053004F4E472050415353574F5244004143435F
:10006300455353202D204752414E54454400444F9D
:100073004F52204F50454E45440057524F4E472054
:1000830050415353574F5244004143434553532028
:1000930044454E49454400494E50555420434C4530
:0B00A300415245440031323334350037
:1000B300317D900016319731A6900025319731D3C9
:1000C300D2B2D288D2A8D2B3D2AAD28AD2AF7C007B
:1000D300317D311978307A307D0031A6EA31AB3188
:1000E300D3BD000431C580F2BD0215317D90009A65
:1000F300319731D331737C00C28B7D00C22580D010
:10010300EC2430F8EAF60CBC05C6312E31737C00C2
:100113007D00C225809A31A19000353197C37405C3
:100123009C243031AB90003D3197227B009000A896
:10013300EB2430F8E6F540EB93B540200BBB05F01C
:100143008000317D900060319790007131A6319726
:1001530031D331D331D331D331D380B0317D90001A
:100163007D319790008C31A6319731D331FC809C3F
:1001730079057830760008D9FB22743831B8740CCD
:1001830031B8740631B8740131B8740231B82274CD
:100193000131B822E493600531ABA380F722748068
:1001A30031B82274C031B822F580D296C294D29766
:1001B30031DCC29722F580C296C294D29731DCC259
:0F01C30097220ABA3A047A418005BA47027A3085
:1001D2002231DC31DC31DC31DC227FFF7EFFDEFECE
:1001E200DFFA227D01D225C289327D02D225C28B5D
:1001F200327F147D14DDFEDFFA227F037580F03139
:10020200DC7E648E60B2A631F3AE60DEF675800FDE
:0502120031DCDFE822F1
:00000001FF
