:030000000200AF4C
:030003000201C235
:100013000201C950415353574F5244204241534563
:100023004400534543555249545920535953544559
:100033004D0053656C65637420002044494749545F
:100043005300444F4F52204F50454E4544005752A2
:100053004F4E472050415353574F5244004143435F
:10006300455353202D204752414E54454400444F9D
:100073004F52204F50454E45440057524F4E472054
:1000830050415353574F5244004143434553532028
:1000930044454E49454400494E50555420434C4530
:0900A300415245440031323300A2
:1000AF003155900016316F319D900025316F31B071
:1000BF00D2B2D288D2A8D2AFD2AAD28A7C00D2AA88
:1000CF00D28A315511FD78307A307D00C225317ECC
:1000DF00EA318331B0BD000431A280F2EC2430F854
:1000EF00EAF60CBC03D83112314B7C0080D0317949
:1000FF00900035316FC374039C2430318390003DE1
:10010F00316F227B009000A8EB2430F8E6F540EB2E
:10011F0093B540170BBB03F0800031559000603151
:10012F006F900071319D316F31B022315590007D4C
:10013F00316F90008C319D316F31B022790578305D
:10014F00760008D9FB2274383190740C3190740604
:10015F0031907401319074023190227401319022E8
:10016F00E49360053183A380F72274803190227469
:10017F00C0319022F580D296C294D29731B9C297EE
:10018F0022F580C296C294D29731B9C2972274C019
:10019F003190220ABA3A047A418005BA47027A307E
:1001AF002231B931B931B931B9227FFF7EFFDEFE7D
:0701BF00DFFA227D01D225C9
:1001C600C28932315590009A316F31B0314B7C0083
:0501D600C28B0200CD08
:00000001FF
