:030000000200AF4C
:030003000201DE19
:100013000201E550415353574F5244204241534547
:100023004400534543555249545920535953544559
:100033004D0053656C65637420002044494749545F
:100043005300444F4F52204F50454E4544005752A2
:100053004F4E472050415353574F5244004143435F
:10006300455353202D204752414E54454400444F9D
:100073004F52204F50454E45440057524F4E472054
:1000830050415353574F5244004143434553532028
:1000930044454E49454400494E50555420434C4530
:0900A300415245440031323300A2
:1000AF003171900016318B31B9900025318B31CCE5
:1000BF00D2B2D288D2A8D2B3D2AAD28AD2AF7C007F
:1000CF003171311978307A307D00C225319AEA3199
:1000DF009F31CCBD000431BE80F2C2AFBD021531DD
:1000EF007190009A318B31CC31677C00C28B7D00CF
:1000FF00D2AF80CCEC2430F8EAF60CBC03C2312E20
:10010F0031677C007D00D2AF80B6319590003531DC
:10011F008BC374039C2430319F90003D318B227B25
:10012F00009000A8EB2430F8E6F540EB93B54017AC
:10013F000BBB03F080003171900060318B90007128
:10014F0031B9318B31CC22317190007D318B9000E0
:10015F008C31B9318B31CC2279057830760008D9C2
:10016F00FB22743831AC740C31AC740631AC7401B1
:10017F0031AC740231AC22740131AC22E4936005CE
:10018F00319FA380F722748031AC2274C031AC222E
:10019F00F580D296C294D29731D5C29722F580C2FC
:1001AF0096C294D29731D5C2972274C031AC220A2D
:0C01BF00BA3A047A418005BA47027A304F
:1001CB002231D531D531D531D5227FFF7EFFDEFEF1
:1001DB00DFFA227D01D225C289327D02D225C28B64
:0101EB0032E1
:00000001FF
